:03000000020100FA
:03000B0002026A84
:1001000012014B1201111201521201A11201398088
:10011000FE90FE0374B4120255747212025590FEE2
:10012000027432120255740012025590FE017418C6
:1001300012025574001202552275890275A8827543
:100140008C1A7F027CFA7A10D28C227B807D02EBA3
:10015000FE2290FE0B7480F090FE0A74001202558D
:1001600090FE08743812025512025C90FE08740C5E
:1001700012025512025C90FE08740112025512021E
:100180005C90FE0A740012025590FE087480120200
:100190005512025C2290FE08740112025512025C94
:1001A00022745612023774721202377465120237C3
:1001B0007466120237743A1202377490120237EEE4
:1001C0001201F3120207742C1202377490120237D4
:1001D000744712023774611202377469120237745D
:1001E0006E120237743A1202377490120237ED120F
:1001F000021B2275F03384F8E5F075F00584B40A2B
:10020000027409F5F0E822A9F0120231742E1202EC
:1002100037E912023174561202372275F0648412E3
:100220000231E5F075F00A84120231E5F012023174
:1002300022243012023722F890FE0A74011202556D
:1002400090FE08E812025590FE0A740512025574D9
:100250000112025522F074FF1202DF2290FE0A748E
:1002600004120255740012025522BF00067F0212CA
:100270000275321F321FBC00217CFABA00077A10C7
:10028000BE000B80031A8012D290EBFE8006C29053
:100290007E0080001201951201A11C1202BCF8C35D
:1002A000EE98400C8DF0A4B4000CE5F01202C922C7
:1002B00074001202C92274FF1202C92290FE18743F
:1002C00000F074401202DFE0221202D490FE01F02E
:1002D0007400F02275F0118475F002A4240222D576
:0302E000E0FD221C
:00000001FF
